{
  "contractName": "Exchange",
  "abi": [
    {
      "inputs": [
        {
          "internalType": "address",
          "name": "_feeAccount",
          "type": "address"
        },
        {
          "internalType": "uint256",
          "name": "_feePercent",
          "type": "uint256"
        }
      ],
      "stateMutability": "nonpayable",
      "type": "constructor"
    },
    {
      "anonymous": false,
      "inputs": [
        {
          "indexed": false,
          "internalType": "uint256",
          "name": "id",
          "type": "uint256"
        },
        {
          "indexed": false,
          "internalType": "address",
          "name": "user",
          "type": "address"
        },
        {
          "indexed": false,
          "internalType": "address",
          "name": "tokenGet",
          "type": "address"
        },
        {
          "indexed": false,
          "internalType": "uint256",
          "name": "amountGet",
          "type": "uint256"
        },
        {
          "indexed": false,
          "internalType": "address",
          "name": "tokenGive",
          "type": "address"
        },
        {
          "indexed": false,
          "internalType": "uint256",
          "name": "amountGive",
          "type": "uint256"
        },
        {
          "indexed": false,
          "internalType": "uint256",
          "name": "timestap",
          "type": "uint256"
        }
      ],
      "name": "Cancel",
      "type": "event"
    },
    {
      "anonymous": false,
      "inputs": [
        {
          "indexed": false,
          "internalType": "address",
          "name": "token",
          "type": "address"
        },
        {
          "indexed": false,
          "internalType": "address",
          "name": "user",
          "type": "address"
        },
        {
          "indexed": false,
          "internalType": "uint256",
          "name": "amount",
          "type": "uint256"
        },
        {
          "indexed": false,
          "internalType": "uint256",
          "name": "balance",
          "type": "uint256"
        }
      ],
      "name": "Deposit",
      "type": "event"
    },
    {
      "anonymous": false,
      "inputs": [
        {
          "indexed": false,
          "internalType": "uint256",
          "name": "id",
          "type": "uint256"
        },
        {
          "indexed": false,
          "internalType": "address",
          "name": "user",
          "type": "address"
        },
        {
          "indexed": false,
          "internalType": "address",
          "name": "tokenGet",
          "type": "address"
        },
        {
          "indexed": false,
          "internalType": "uint256",
          "name": "amountGet",
          "type": "uint256"
        },
        {
          "indexed": false,
          "internalType": "address",
          "name": "tokenGive",
          "type": "address"
        },
        {
          "indexed": false,
          "internalType": "uint256",
          "name": "amountGive",
          "type": "uint256"
        },
        {
          "indexed": false,
          "internalType": "uint256",
          "name": "timestap",
          "type": "uint256"
        }
      ],
      "name": "Order",
      "type": "event"
    },
    {
      "anonymous": false,
      "inputs": [
        {
          "indexed": false,
          "internalType": "uint256",
          "name": "id",
          "type": "uint256"
        },
        {
          "indexed": false,
          "internalType": "address",
          "name": "user",
          "type": "address"
        },
        {
          "indexed": false,
          "internalType": "address",
          "name": "tokenGet",
          "type": "address"
        },
        {
          "indexed": false,
          "internalType": "uint256",
          "name": "amountGet",
          "type": "uint256"
        },
        {
          "indexed": false,
          "internalType": "address",
          "name": "tokenGive",
          "type": "address"
        },
        {
          "indexed": false,
          "internalType": "uint256",
          "name": "amountGive",
          "type": "uint256"
        },
        {
          "indexed": false,
          "internalType": "address",
          "name": "userFill",
          "type": "address"
        },
        {
          "indexed": false,
          "internalType": "uint256",
          "name": "timestap",
          "type": "uint256"
        }
      ],
      "name": "Trade",
      "type": "event"
    },
    {
      "anonymous": false,
      "inputs": [
        {
          "indexed": false,
          "internalType": "address",
          "name": "token",
          "type": "address"
        },
        {
          "indexed": false,
          "internalType": "address",
          "name": "user",
          "type": "address"
        },
        {
          "indexed": false,
          "internalType": "uint256",
          "name": "amount",
          "type": "uint256"
        },
        {
          "indexed": false,
          "internalType": "uint256",
          "name": "balance",
          "type": "uint256"
        }
      ],
      "name": "Withdraw",
      "type": "event"
    },
    {
      "inputs": [],
      "name": "feeAccount",
      "outputs": [
        {
          "internalType": "address",
          "name": "",
          "type": "address"
        }
      ],
      "stateMutability": "view",
      "type": "function",
      "constant": true
    },
    {
      "inputs": [],
      "name": "feePercent",
      "outputs": [
        {
          "internalType": "uint256",
          "name": "",
          "type": "uint256"
        }
      ],
      "stateMutability": "view",
      "type": "function",
      "constant": true
    },
    {
      "inputs": [
        {
          "internalType": "uint256",
          "name": "",
          "type": "uint256"
        }
      ],
      "name": "orderCancelled",
      "outputs": [
        {
          "internalType": "bool",
          "name": "",
          "type": "bool"
        }
      ],
      "stateMutability": "view",
      "type": "function",
      "constant": true
    },
    {
      "inputs": [],
      "name": "orderCount",
      "outputs": [
        {
          "internalType": "uint256",
          "name": "",
          "type": "uint256"
        }
      ],
      "stateMutability": "view",
      "type": "function",
      "constant": true
    },
    {
      "inputs": [
        {
          "internalType": "uint256",
          "name": "",
          "type": "uint256"
        }
      ],
      "name": "orderFilled",
      "outputs": [
        {
          "internalType": "bool",
          "name": "",
          "type": "bool"
        }
      ],
      "stateMutability": "view",
      "type": "function",
      "constant": true
    },
    {
      "inputs": [
        {
          "internalType": "uint256",
          "name": "",
          "type": "uint256"
        }
      ],
      "name": "orders",
      "outputs": [
        {
          "internalType": "uint256",
          "name": "id",
          "type": "uint256"
        },
        {
          "internalType": "address",
          "name": "user",
          "type": "address"
        },
        {
          "internalType": "address",
          "name": "tokenGet",
          "type": "address"
        },
        {
          "internalType": "uint256",
          "name": "amountGet",
          "type": "uint256"
        },
        {
          "internalType": "address",
          "name": "tokenGive",
          "type": "address"
        },
        {
          "internalType": "uint256",
          "name": "amountGive",
          "type": "uint256"
        },
        {
          "internalType": "uint256",
          "name": "timestap",
          "type": "uint256"
        }
      ],
      "stateMutability": "view",
      "type": "function",
      "constant": true
    },
    {
      "inputs": [
        {
          "internalType": "address",
          "name": "",
          "type": "address"
        },
        {
          "internalType": "address",
          "name": "",
          "type": "address"
        }
      ],
      "name": "tokensMap",
      "outputs": [
        {
          "internalType": "uint256",
          "name": "",
          "type": "uint256"
        }
      ],
      "stateMutability": "view",
      "type": "function",
      "constant": true
    },
    {
      "stateMutability": "payable",
      "type": "receive",
      "payable": true
    },
    {
      "inputs": [],
      "name": "depositEther",
      "outputs": [],
      "stateMutability": "payable",
      "type": "function",
      "payable": true
    },
    {
      "inputs": [
        {
          "internalType": "uint256",
          "name": "_amount",
          "type": "uint256"
        }
      ],
      "name": "withdrawEther",
      "outputs": [],
      "stateMutability": "nonpayable",
      "type": "function"
    },
    {
      "inputs": [
        {
          "internalType": "address",
          "name": "_token",
          "type": "address"
        },
        {
          "internalType": "uint256",
          "name": "_amount",
          "type": "uint256"
        }
      ],
      "name": "depositToken",
      "outputs": [],
      "stateMutability": "nonpayable",
      "type": "function"
    },
    {
      "inputs": [
        {
          "internalType": "address",
          "name": "_token",
          "type": "address"
        },
        {
          "internalType": "uint256",
          "name": "_amount",
          "type": "uint256"
        }
      ],
      "name": "withdraToken",
      "outputs": [],
      "stateMutability": "nonpayable",
      "type": "function"
    },
    {
      "inputs": [
        {
          "internalType": "address",
          "name": "_token",
          "type": "address"
        },
        {
          "internalType": "address",
          "name": "_user",
          "type": "address"
        }
      ],
      "name": "balanceOf",
      "outputs": [
        {
          "internalType": "uint256",
          "name": "",
          "type": "uint256"
        }
      ],
      "stateMutability": "view",
      "type": "function",
      "constant": true
    },
    {
      "inputs": [
        {
          "internalType": "address",
          "name": "_tokenGet",
          "type": "address"
        },
        {
          "internalType": "uint256",
          "name": "_amountGet",
          "type": "uint256"
        },
        {
          "internalType": "address",
          "name": "_tokenGive",
          "type": "address"
        },
        {
          "internalType": "uint256",
          "name": "_amountGive",
          "type": "uint256"
        }
      ],
      "name": "makeOrder",
      "outputs": [],
      "stateMutability": "nonpayable",
      "type": "function"
    },
    {
      "inputs": [
        {
          "internalType": "uint256",
          "name": "_id",
          "type": "uint256"
        }
      ],
      "name": "cancelOrder",
      "outputs": [],
      "stateMutability": "nonpayable",
      "type": "function"
    },
    {
      "inputs": [
        {
          "internalType": "uint256",
          "name": "_id",
          "type": "uint256"
        }
      ],
      "name": "fillOrder",
      "outputs": [],
      "stateMutability": "nonpayable",
      "type": "function"
    }
  ],
  "bytecode": "0x60806040523480156200001157600080fd5b5060405162001fee38038062001fee83398181016040528101906200003791906200012b565b816000806101000a81548173ffffffffffffffffffffffffffffffffffffffff021916908373ffffffffffffffffffffffffffffffffffffffff16021790555080600181905550505062000172565b600080fd5b600073ffffffffffffffffffffffffffffffffffffffff82169050919050565b6000620000b8826200008b565b9050919050565b620000ca81620000ab565b8114620000d657600080fd5b50565b600081519050620000ea81620000bf565b92915050565b6000819050919050565b6200010581620000f0565b81146200011157600080fd5b50565b6000815190506200012581620000fa565b92915050565b6000806040838503121562000145576200014462000086565b5b60006200015585828601620000d9565b9250506020620001688582860162000114565b9150509250929050565b611e6c80620001826000396000f3fe6080604052600436106100ec5760003560e01c80637fd6f15c1161008a578063a85c38ef11610059578063a85c38ef146102b9578063bf6f1882146102fc578063e9c1896614610339578063f7888aec14610376576100f6565b80637fd6f15c14610232578063872408301461025d57806398ea5fca146102865780639a5c90aa14610290576100f6565b80634a93e0da116100c65780634a93e0da14610178578063514fcac7146101b557806365e17c9d146101de57806367b830ad14610209576100f6565b80632453ffa8146100fb578063338b5dea146101265780633bed33ce1461014f576100f6565b366100f657600080fd5b600080fd5b34801561010757600080fd5b506101106103b3565b60405161011d9190611979565b60405180910390f35b34801561013257600080fd5b5061014d60048036038101906101489190611a23565b6103b9565b005b34801561015b57600080fd5b5061017660048036038101906101719190611a63565b610637565b005b34801561018457600080fd5b5061019f600480360381019061019a9190611a63565b6108c3565b6040516101ac9190611aab565b60405180910390f35b3480156101c157600080fd5b506101dc60048036038101906101d79190611a63565b6108e3565b005b3480156101ea57600080fd5b506101f3610a2d565b6040516102009190611ad5565b60405180910390f35b34801561021557600080fd5b50610230600480360381019061022b9190611a63565b610a51565b005b34801561023e57600080fd5b50610247610b93565b6040516102549190611979565b60405180910390f35b34801561026957600080fd5b50610284600480360381019061027f9190611a23565b610b99565b005b61028e610ea4565b005b34801561029c57600080fd5b506102b760048036038101906102b29190611af0565b61105f565b005b3480156102c557600080fd5b506102e060048036038101906102db9190611a63565b61124b565b6040516102f39796959493929190611b57565b60405180910390f35b34801561030857600080fd5b50610323600480360381019061031e9190611bc6565b6112ed565b6040516103309190611979565b60405180910390f35b34801561034557600080fd5b50610360600480360381019061035b9190611a63565b611312565b60405161036d9190611aab565b60405180910390f35b34801561038257600080fd5b5061039d60048036038101906103989190611bc6565b611332565b6040516103aa9190611979565b60405180910390f35b60045481565b600073ffffffffffffffffffffffffffffffffffffffff168273ffffffffffffffffffffffffffffffffffffffff16036103f257600080fd5b80600260008473ffffffffffffffffffffffffffffffffffffffff1673ffffffffffffffffffffffffffffffffffffffff16815260200190815260200160002060003373ffffffffffffffffffffffffffffffffffffffff1673ffffffffffffffffffffffffffffffffffffffff1681526020019081526020016000205401600260008473ffffffffffffffffffffffffffffffffffffffff1673ffffffffffffffffffffffffffffffffffffffff16815260200190815260200160002060003373ffffffffffffffffffffffffffffffffffffffff1673ffffffffffffffffffffffffffffffffffffffff168152602001908152602001600020819055508173ffffffffffffffffffffffffffffffffffffffff166323b872dd3330846040518463ffffffff1660e01b815260040161052e93929190611c06565b6020604051808303816000875af115801561054d573d6000803e3d6000fd5b505050506040513d601f19601f820116820180604052508101906105719190611c69565b61057a57600080fd5b7fdcbc1c05240f31ff3ad067ef1ee35ce4997762752e3a095284754544f4c709d7823383600260008773ffffffffffffffffffffffffffffffffffffffff1673ffffffffffffffffffffffffffffffffffffffff16815260200190815260200160002060003373ffffffffffffffffffffffffffffffffffffffff1673ffffffffffffffffffffffffffffffffffffffff1681526020019081526020016000205460405161062b9493929190611c96565b60405180910390a15050565b80600260008073ffffffffffffffffffffffffffffffffffffffff1673ffffffffffffffffffffffffffffffffffffffff16815260200190815260200160002060003373ffffffffffffffffffffffffffffffffffffffff1673ffffffffffffffffffffffffffffffffffffffff1681526020019081526020016000205410156106c057600080fd5b80600260008073ffffffffffffffffffffffffffffffffffffffff1673ffffffffffffffffffffffffffffffffffffffff16815260200190815260200160002060003373ffffffffffffffffffffffffffffffffffffffff1673ffffffffffffffffffffffffffffffffffffffff1681526020019081526020016000205403600260008073ffffffffffffffffffffffffffffffffffffffff1673ffffffffffffffffffffffffffffffffffffffff16815260200190815260200160002060003373ffffffffffffffffffffffffffffffffffffffff1673ffffffffffffffffffffffffffffffffffffffff168152602001908152602001600020819055503373ffffffffffffffffffffffffffffffffffffffff166108fc829081150290604051600060405180830381858888f19350505050158015610805573d6000803e3d6000fd5b507ff341246adaac6f497bc2a656f546ab9e182111d630394f0c57c710a59a2cb56760003383600260008073ffffffffffffffffffffffffffffffffffffffff1673ffffffffffffffffffffffffffffffffffffffff16815260200190815260200160002060003373ffffffffffffffffffffffffffffffffffffffff1673ffffffffffffffffffffffffffffffffffffffff168152602001908152602001600020546040516108b89493929190611c96565b60405180910390a150565b60066020528060005260406000206000915054906101000a900460ff1681565b60006003600083815260200190815260200160002090503373ffffffffffffffffffffffffffffffffffffffff168160010160009054906101000a900473ffffffffffffffffffffffffffffffffffffffff1673ffffffffffffffffffffffffffffffffffffffff161461095657600080fd5b8181600001541461096657600080fd5b60016005600084815260200190815260200160002060006101000a81548160ff0219169083151502179055507f77de1da0be5f2d3b110d05c6694e5c4ff2d9da7cd23d84353ecf78c7b5acec618160000154338360020160009054906101000a900473ffffffffffffffffffffffffffffffffffffffff1684600301548560040160009054906101000a900473ffffffffffffffffffffffffffffffffffffffff16866005015442604051610a219796959493929190611b57565b60405180910390a15050565b60008054906101000a900473ffffffffffffffffffffffffffffffffffffffff1681565b600081118015610a6357506004548111155b610a6c57600080fd5b6006600082815260200190815260200160002060009054906101000a900460ff1615610a9757600080fd5b6005600082815260200190815260200160002060009054906101000a900460ff1615610ac257600080fd5b6000600360008381526020019081526020016000209050610b5f81600001548260010160009054906101000a900473ffffffffffffffffffffffffffffffffffffffff168360020160009054906101000a900473ffffffffffffffffffffffffffffffffffffffff1684600301548560040160009054906101000a900473ffffffffffffffffffffffffffffffffffffffff1686600501546113b9565b6001600660008360000154815260200190815260200160002060006101000a81548160ff0219169083151502179055505050565b60015481565b600073ffffffffffffffffffffffffffffffffffffffff168273ffffffffffffffffffffffffffffffffffffffff1603610bd257600080fd5b6000600260008473ffffffffffffffffffffffffffffffffffffffff1673ffffffffffffffffffffffffffffffffffffffff16815260200190815260200160002060003373ffffffffffffffffffffffffffffffffffffffff1673ffffffffffffffffffffffffffffffffffffffff16815260200190815260200160002054905081811015610c6057600080fd5b81600260008573ffffffffffffffffffffffffffffffffffffffff1673ffffffffffffffffffffffffffffffffffffffff16815260200190815260200160002060003373ffffffffffffffffffffffffffffffffffffffff1673ffffffffffffffffffffffffffffffffffffffff1681526020019081526020016000205403600260008573ffffffffffffffffffffffffffffffffffffffff1673ffffffffffffffffffffffffffffffffffffffff16815260200190815260200160002060003373ffffffffffffffffffffffffffffffffffffffff1673ffffffffffffffffffffffffffffffffffffffff168152602001908152602001600020819055508273ffffffffffffffffffffffffffffffffffffffff166369ca02dd33846040518363ffffffff1660e01b8152600401610d9a929190611cdb565b6020604051808303816000875af1158015610db9573d6000803e3d6000fd5b505050506040513d601f19601f82011682018060405250810190610ddd9190611c69565b610de657600080fd5b7ff341246adaac6f497bc2a656f546ab9e182111d630394f0c57c710a59a2cb567833384600260008873ffffffffffffffffffffffffffffffffffffffff1673ffffffffffffffffffffffffffffffffffffffff16815260200190815260200160002060003373ffffffffffffffffffffffffffffffffffffffff1673ffffffffffffffffffffffffffffffffffffffff16815260200190815260200160002054604051610e979493929190611c96565b60405180910390a1505050565b34600260008073ffffffffffffffffffffffffffffffffffffffff1673ffffffffffffffffffffffffffffffffffffffff16815260200190815260200160002060003373ffffffffffffffffffffffffffffffffffffffff1673ffffffffffffffffffffffffffffffffffffffff1681526020019081526020016000205401600260008073ffffffffffffffffffffffffffffffffffffffff1673ffffffffffffffffffffffffffffffffffffffff16815260200190815260200160002060003373ffffffffffffffffffffffffffffffffffffffff1673ffffffffffffffffffffffffffffffffffffffff168152602001908152602001600020819055507fdcbc1c05240f31ff3ad067ef1ee35ce4997762752e3a095284754544f4c709d760003334600260008073ffffffffffffffffffffffffffffffffffffffff1673ffffffffffffffffffffffffffffffffffffffff16815260200190815260200160002060003373ffffffffffffffffffffffffffffffffffffffff1673ffffffffffffffffffffffffffffffffffffffff168152602001908152602001600020546040516110559493929190611c96565b60405180910390a1565b600160045461106e9190611d33565b6004819055506040518060e0016040528060045481526020013373ffffffffffffffffffffffffffffffffffffffff1681526020018573ffffffffffffffffffffffffffffffffffffffff1681526020018481526020018373ffffffffffffffffffffffffffffffffffffffff168152602001828152602001428152506003600060045481526020019081526020016000206000820151816000015560208201518160010160006101000a81548173ffffffffffffffffffffffffffffffffffffffff021916908373ffffffffffffffffffffffffffffffffffffffff16021790555060408201518160020160006101000a81548173ffffffffffffffffffffffffffffffffffffffff021916908373ffffffffffffffffffffffffffffffffffffffff1602179055506060820151816003015560808201518160040160006101000a81548173ffffffffffffffffffffffffffffffffffffffff021916908373ffffffffffffffffffffffffffffffffffffffff16021790555060a0820151816005015560c082015181600601559050507f9d33853d43e3607b4cc01fdc78338ff2dca6fef7db9232dae6d3eb55fbc3b10960045433868686864260405161123d9796959493929190611b57565b60405180910390a150505050565b60036020528060005260406000206000915090508060000154908060010160009054906101000a900473ffffffffffffffffffffffffffffffffffffffff16908060020160009054906101000a900473ffffffffffffffffffffffffffffffffffffffff16908060030154908060040160009054906101000a900473ffffffffffffffffffffffffffffffffffffffff16908060050154908060060154905087565b6002602052816000526040600020602052806000526040600020600091509150505481565b60056020528060005260406000206000915054906101000a900460ff1681565b6000600260008473ffffffffffffffffffffffffffffffffffffffff1673ffffffffffffffffffffffffffffffffffffffff16815260200190815260200160002060008373ffffffffffffffffffffffffffffffffffffffff1673ffffffffffffffffffffffffffffffffffffffff16815260200190815260200160002054905092915050565b600060646001548302816113d0576113cf611d89565b5b049050808401600260008773ffffffffffffffffffffffffffffffffffffffff1673ffffffffffffffffffffffffffffffffffffffff16815260200190815260200160002060003373ffffffffffffffffffffffffffffffffffffffff1673ffffffffffffffffffffffffffffffffffffffff1681526020019081526020016000205403600260008773ffffffffffffffffffffffffffffffffffffffff1673ffffffffffffffffffffffffffffffffffffffff16815260200190815260200160002060003373ffffffffffffffffffffffffffffffffffffffff1673ffffffffffffffffffffffffffffffffffffffff1681526020019081526020016000208190555083600260008773ffffffffffffffffffffffffffffffffffffffff1673ffffffffffffffffffffffffffffffffffffffff16815260200190815260200160002060008873ffffffffffffffffffffffffffffffffffffffff1673ffffffffffffffffffffffffffffffffffffffff1681526020019081526020016000205401600260008773ffffffffffffffffffffffffffffffffffffffff1673ffffffffffffffffffffffffffffffffffffffff16815260200190815260200160002060008873ffffffffffffffffffffffffffffffffffffffff1673ffffffffffffffffffffffffffffffffffffffff1681526020019081526020016000208190555080600260008773ffffffffffffffffffffffffffffffffffffffff1673ffffffffffffffffffffffffffffffffffffffff16815260200190815260200160002060008060009054906101000a900473ffffffffffffffffffffffffffffffffffffffff1673ffffffffffffffffffffffffffffffffffffffff1673ffffffffffffffffffffffffffffffffffffffff1681526020019081526020016000205401600260008773ffffffffffffffffffffffffffffffffffffffff1673ffffffffffffffffffffffffffffffffffffffff16815260200190815260200160002060008060009054906101000a900473ffffffffffffffffffffffffffffffffffffffff1673ffffffffffffffffffffffffffffffffffffffff1673ffffffffffffffffffffffffffffffffffffffff1681526020019081526020016000208190555081600260008573ffffffffffffffffffffffffffffffffffffffff1673ffffffffffffffffffffffffffffffffffffffff16815260200190815260200160002060008873ffffffffffffffffffffffffffffffffffffffff1673ffffffffffffffffffffffffffffffffffffffff1681526020019081526020016000205403600260008573ffffffffffffffffffffffffffffffffffffffff1673ffffffffffffffffffffffffffffffffffffffff16815260200190815260200160002060008873ffffffffffffffffffffffffffffffffffffffff1673ffffffffffffffffffffffffffffffffffffffff1681526020019081526020016000208190555081600260008773ffffffffffffffffffffffffffffffffffffffff1673ffffffffffffffffffffffffffffffffffffffff16815260200190815260200160002060003373ffffffffffffffffffffffffffffffffffffffff1673ffffffffffffffffffffffffffffffffffffffff1681526020019081526020016000205401600260008573ffffffffffffffffffffffffffffffffffffffff1673ffffffffffffffffffffffffffffffffffffffff16815260200190815260200160002060003373ffffffffffffffffffffffffffffffffffffffff1673ffffffffffffffffffffffffffffffffffffffff16815260200190815260200160002081905550507f0dddf4182dc0fc1a311cb75f049c97403c6b8a99cf6b2229a36e7c526acb3f818686868686863342604051611950989796959493929190611db8565b60405180910390a1505050505050565b6000819050919050565b61197381611960565b82525050565b600060208201905061198e600083018461196a565b92915050565b600080fd5b600073ffffffffffffffffffffffffffffffffffffffff82169050919050565b60006119c482611999565b9050919050565b6119d4816119b9565b81146119df57600080fd5b50565b6000813590506119f1816119cb565b92915050565b611a0081611960565b8114611a0b57600080fd5b50565b600081359050611a1d816119f7565b92915050565b60008060408385031215611a3a57611a39611994565b5b6000611a48858286016119e2565b9250506020611a5985828601611a0e565b9150509250929050565b600060208284031215611a7957611a78611994565b5b6000611a8784828501611a0e565b91505092915050565b60008115159050919050565b611aa581611a90565b82525050565b6000602082019050611ac06000830184611a9c565b92915050565b611acf816119b9565b82525050565b6000602082019050611aea6000830184611ac6565b92915050565b60008060008060808587031215611b0a57611b09611994565b5b6000611b18878288016119e2565b9450506020611b2987828801611a0e565b9350506040611b3a878288016119e2565b9250506060611b4b87828801611a0e565b91505092959194509250565b600060e082019050611b6c600083018a61196a565b611b796020830189611ac6565b611b866040830188611ac6565b611b93606083018761196a565b611ba06080830186611ac6565b611bad60a083018561196a565b611bba60c083018461196a565b98975050505050505050565b60008060408385031215611bdd57611bdc611994565b5b6000611beb858286016119e2565b9250506020611bfc858286016119e2565b9150509250929050565b6000606082019050611c1b6000830186611ac6565b611c286020830185611ac6565b611c35604083018461196a565b949350505050565b611c4681611a90565b8114611c5157600080fd5b50565b600081519050611c6381611c3d565b92915050565b600060208284031215611c7f57611c7e611994565b5b6000611c8d84828501611c54565b91505092915050565b6000608082019050611cab6000830187611ac6565b611cb86020830186611ac6565b611cc5604083018561196a565b611cd2606083018461196a565b95945050505050565b6000604082019050611cf06000830185611ac6565b611cfd602083018461196a565b9392505050565b7f4e487b7100000000000000000000000000000000000000000000000000000000600052601160045260246000fd5b6000611d3e82611960565b9150611d4983611960565b9250827fffffffffffffffffffffffffffffffffffffffffffffffffffffffffffffffff03821115611d7e57611d7d611d04565b5b828201905092915050565b7f4e487b7100000000000000000000000000000000000000000000000000000000600052601260045260246000fd5b600061010082019050611dce600083018b61196a565b611ddb602083018a611ac6565b611de86040830189611ac6565b611df5606083018861196a565b611e026080830187611ac6565b611e0f60a083018661196a565b611e1c60c0830185611ac6565b611e2960e083018461196a565b999850505050505050505056fea264697066735822122046b18ecfd6381884409bc8c538cdf32e6b3e09511a7015432de5037db23f657064736f6c634300080d0033",
  "immutableReferences": {},
  "source": "// SPDX-License-Identifier: MIT\npragma solidity ^0.8.0;\n\nimport \"./Token.sol\";\n\ncontract Exchange{\n\n    address public feeAccount;\n    uint256 public feePercent;\n    address constant ETHER = address(0);//store ether in tokensMap with blank address\n    mapping(address => mapping(address => uint256)) public tokensMap;\n    // first key is the token \n    // second key is  the user address\n    mapping(uint256 => _Order) public orders;\n    uint256 public orderCount;\n    mapping(uint256 => bool) public orderCancelled;\n    mapping(uint256 => bool) public orderFilled;\n\n    event Deposit(address token, address user, uint256 amount, uint256 balance);\n    event Withdraw(address token, address user, uint256 amount, uint256 balance);\n    event Order(\n        uint256 id,\n        address user,\n        address tokenGet,\n        uint256 amountGet,\n        address tokenGive,\n        uint256 amountGive,\n        uint256 timestap\n    );\n    event Cancel(\n        uint256 id,\n        address user,\n        address tokenGet,\n        uint256 amountGet,\n        address tokenGive,\n        uint256 amountGive,\n        uint256 timestap\n    );\n   event Trade(\n        uint256 id,\n        address user,\n        address tokenGet,\n        uint256 amountGet,\n        address tokenGive,\n        uint256 amountGive,\n        address userFill,\n        uint256 timestap\n   );\n\n    struct  _Order{\n        uint256 id;\n        address user;\n        address tokenGet;\n        uint256 amountGet;\n        address tokenGive;\n        uint256 amountGive;\n        uint256 timestap;\n    }\n\n    constructor(address _feeAccount, uint256 _feePercent)\n    {\n        feeAccount = _feeAccount;\n        feePercent = _feePercent;\n\n    }\n\n    receive() external payable\n    {\n        revert();\n    }\n\n    function depositEther()public payable{\n        unchecked {\n            tokensMap[ETHER][msg.sender] = tokensMap[ETHER][msg.sender] + msg.value;\n        }\n         emit Deposit(ETHER, msg.sender, msg.value,tokensMap[ETHER][msg.sender]);\n\n    }\n\n    function withdrawEther(uint256 _amount) public {\n\n        require(tokensMap[ETHER][msg.sender] >= _amount);\n        unchecked {\n            tokensMap[ETHER][msg.sender] = tokensMap[ETHER][msg.sender] - _amount;\n        }\n        \n        payable(msg.sender).transfer(_amount);\n        emit Withdraw(ETHER, msg.sender, _amount, tokensMap[ETHER][msg.sender]);\n    }\n\n    function depositToken(address _token, uint256 _amount) public {\n        require(_token != ETHER);\n        unchecked {\n            tokensMap[_token][msg.sender] = tokensMap[_token][msg.sender] + _amount;\n        }\n        require(Token(_token).transferFrom(msg.sender, address(this), _amount));// move token to itself\n        emit Deposit(_token, msg.sender, _amount,tokensMap[_token][msg.sender]);\n    }\n\n    function withdraToken(address _token, uint256 _amount) public {\n        require(_token != ETHER);\n        uint256 tokenBalance = tokensMap[_token][msg.sender];\n        require(tokenBalance >= _amount);\n        unchecked {\n            tokensMap[_token][msg.sender] = tokensMap[_token][msg.sender] - _amount; \n        }\n        require(Token(_token).Transfer(msg.sender ,_amount));  \n        emit Withdraw(_token, msg.sender, _amount, tokensMap[_token][msg.sender]);\n    }\n\n    function balanceOf(address _token, address _user) public view returns(uint256){\n        return tokensMap[_token][_user];\n    }\n\n    function makeOrder(address _tokenGet, uint256 _amountGet, address _tokenGive, uint256 _amountGive ) public {\n\n        orderCount = orderCount + 1;\n        orders[orderCount] = _Order(orderCount, msg.sender, _tokenGet, _amountGet, _tokenGive, _amountGive, block.timestamp);\n        emit Order(orderCount, msg.sender, _tokenGet, _amountGet, _tokenGive, _amountGive, block.timestamp);\n    }\n\n    function cancelOrder(uint256 _id) public{\n\n        _Order storage _order = orders[_id];\n        require(address(_order.user) == msg.sender);\n        require(_order.id == _id);\n        orderCancelled[_id] = true;\n        emit Cancel(_order.id, msg.sender, _order.tokenGet, _order.amountGet, _order.tokenGive, _order.amountGive, block.timestamp);\n    }\n\n    function fillOrder(uint256 _id)public{\n        require(_id > 0 && _id <= orderCount);\n        require(!orderFilled[_id]);\n        require(!orderCancelled[_id]);\n        _Order storage _order = orders[_id];  //fetch order\n        _trade(_order.id, _order.user, _order.tokenGet, _order.amountGet, _order.tokenGive, _order.amountGive);\n        orderFilled[_order.id] = true;\n    }\n    function _trade(uint256 _orderId, address _user, address _tokenGet, uint256 _amountGet, address _tokenGive, uint256 _amountGive) internal{\n        // do trade\n        // charge fess \n        //mark the order as filled \n        //emit trade event \n        // require(tokensMap[_tokenGet][msg.sender] >= _amountGet);\n        // require(tokensMap[_tokenGive][msg.sender] >= _amountGive);\n        unchecked {\n            uint256 feeAmount = (_amountGive * feePercent) / 100;\n            // user is the person creating order, msg.sender is the one who fill order\n            tokensMap[_tokenGet][msg.sender] = tokensMap[_tokenGet][msg.sender] - (_amountGet + feeAmount);\n            tokensMap[_tokenGet][_user] = tokensMap[_tokenGet][_user] + _amountGet;\n            tokensMap[_tokenGet][feeAccount] = tokensMap[_tokenGet][feeAccount] + feeAmount;\n            tokensMap[_tokenGive][_user] = tokensMap[_tokenGive][_user] - _amountGive;\n            tokensMap[_tokenGive][msg.sender] = tokensMap[_tokenGet][msg.sender] + _amountGive;\n        }\n        emit Trade(_orderId, _user, _tokenGet, _amountGet, _tokenGive, _amountGive, msg.sender, block.timestamp);\n    }\n}",
  "sourcePath": "/goinfre/ahaifoul/exchange_market/src/contracts/Exchange.sol",
  "compiler": {
    "name": "solc",
    "version": "0.8.13+commit.abaa5c0e.Emscripten.clang"
  },
  "schemaVersion": "3.4.8",
  "updatedAt": "2022-08-16T13:59:28.846Z",
  "networkType": "ethereum",
  "devdoc": {
    "kind": "dev",
    "methods": {},
    "version": 1
  },
  "userdoc": {
    "kind": "user",
    "methods": {},
    "version": 1
  }
}