{
  "contractName": "Token",
  "abi": [
    {
      "inputs": [],
      "stateMutability": "nonpayable",
      "type": "constructor"
    },
    {
      "anonymous": false,
      "inputs": [
        {
          "indexed": true,
          "internalType": "address",
          "name": "owner",
          "type": "address"
        },
        {
          "indexed": true,
          "internalType": "address",
          "name": "spender",
          "type": "address"
        },
        {
          "indexed": false,
          "internalType": "uint256",
          "name": "value",
          "type": "uint256"
        }
      ],
      "name": "Approval",
      "type": "event"
    },
    {
      "anonymous": false,
      "inputs": [
        {
          "indexed": true,
          "internalType": "address",
          "name": "from",
          "type": "address"
        },
        {
          "indexed": true,
          "internalType": "address",
          "name": "to",
          "type": "address"
        },
        {
          "indexed": false,
          "internalType": "uint256",
          "name": "amount",
          "type": "uint256"
        }
      ],
      "name": "transfer",
      "type": "event"
    },
    {
      "inputs": [
        {
          "internalType": "address",
          "name": "",
          "type": "address"
        }
      ],
      "name": "_balances",
      "outputs": [
        {
          "internalType": "uint256",
          "name": "",
          "type": "uint256"
        }
      ],
      "stateMutability": "view",
      "type": "function",
      "constant": true
    },
    {
      "inputs": [],
      "name": "_name",
      "outputs": [
        {
          "internalType": "string",
          "name": "",
          "type": "string"
        }
      ],
      "stateMutability": "view",
      "type": "function",
      "constant": true
    },
    {
      "inputs": [
        {
          "internalType": "address",
          "name": "",
          "type": "address"
        },
        {
          "internalType": "address",
          "name": "",
          "type": "address"
        }
      ],
      "name": "allowance",
      "outputs": [
        {
          "internalType": "uint256",
          "name": "",
          "type": "uint256"
        }
      ],
      "stateMutability": "view",
      "type": "function",
      "constant": true
    },
    {
      "inputs": [],
      "name": "decimals",
      "outputs": [
        {
          "internalType": "uint256",
          "name": "",
          "type": "uint256"
        }
      ],
      "stateMutability": "view",
      "type": "function",
      "constant": true
    },
    {
      "inputs": [],
      "name": "symbol",
      "outputs": [
        {
          "internalType": "string",
          "name": "",
          "type": "string"
        }
      ],
      "stateMutability": "view",
      "type": "function",
      "constant": true
    },
    {
      "inputs": [],
      "name": "total_supply",
      "outputs": [
        {
          "internalType": "uint256",
          "name": "",
          "type": "uint256"
        }
      ],
      "stateMutability": "view",
      "type": "function",
      "constant": true
    },
    {
      "inputs": [
        {
          "internalType": "address",
          "name": "to",
          "type": "address"
        },
        {
          "internalType": "uint256",
          "name": "amount",
          "type": "uint256"
        }
      ],
      "name": "Transfer",
      "outputs": [
        {
          "internalType": "bool",
          "name": "success",
          "type": "bool"
        }
      ],
      "stateMutability": "nonpayable",
      "type": "function"
    },
    {
      "inputs": [
        {
          "internalType": "address",
          "name": "owner",
          "type": "address"
        },
        {
          "internalType": "address",
          "name": "spender",
          "type": "address"
        },
        {
          "internalType": "uint256",
          "name": "amount",
          "type": "uint256"
        }
      ],
      "name": "approve",
      "outputs": [],
      "stateMutability": "nonpayable",
      "type": "function"
    },
    {
      "inputs": [
        {
          "internalType": "address",
          "name": "from",
          "type": "address"
        },
        {
          "internalType": "address",
          "name": "to",
          "type": "address"
        },
        {
          "internalType": "uint256",
          "name": "amount",
          "type": "uint256"
        }
      ],
      "name": "transferFrom",
      "outputs": [
        {
          "internalType": "bool",
          "name": "",
          "type": "bool"
        }
      ],
      "stateMutability": "nonpayable",
      "type": "function"
    }
  ],
  "bytecode": "0x60806040526040518060400160405280600b81526020017f416264656c20546f6b656e000000000000000000000000000000000000000000815250600090805190602001906200005192919062000126565b506040518060400160405280600381526020017f4841490000000000000000000000000000000000000000000000000000000000815250600190805190602001906200009f92919062000126565b506012600255348015620000b257600080fd5b50600254600a620000c4919062000363565b620f4240620000d49190620003b4565b600381905550600354600460003373ffffffffffffffffffffffffffffffffffffffff1673ffffffffffffffffffffffffffffffffffffffff1681526020019081526020016000208190555062000479565b828054620001349062000444565b90600052602060002090601f016020900481019282620001585760008555620001a4565b82601f106200017357805160ff1916838001178555620001a4565b82800160010185558215620001a4579182015b82811115620001a357825182559160200191906001019062000186565b5b509050620001b39190620001b7565b5090565b5b80821115620001d2576000816000905550600101620001b8565b5090565b7f4e487b7100000000000000000000000000000000000000000000000000000000600052601160045260246000fd5b60008160011c9050919050565b6000808291508390505b600185111562000264578086048111156200023c576200023b620001d6565b5b60018516156200024c5780820291505b80810290506200025c8562000205565b94506200021c565b94509492505050565b6000826200027f576001905062000352565b816200028f576000905062000352565b8160018114620002a85760028114620002b357620002e9565b600191505062000352565b60ff841115620002c857620002c7620001d6565b5b8360020a915084821115620002e257620002e1620001d6565b5b5062000352565b5060208310610133831016604e8410600b8410161715620003235782820a9050838111156200031d576200031c620001d6565b5b62000352565b62000332848484600162000212565b925090508184048111156200034c576200034b620001d6565b5b81810290505b9392505050565b6000819050919050565b6000620003708262000359565b91506200037d8362000359565b9250620003ac7fffffffffffffffffffffffffffffffffffffffffffffffffffffffffffffffff84846200026d565b905092915050565b6000620003c18262000359565b9150620003ce8362000359565b9250817fffffffffffffffffffffffffffffffffffffffffffffffffffffffffffffffff04831182151516156200040a5762000409620001d6565b5b828202905092915050565b7f4e487b7100000000000000000000000000000000000000000000000000000000600052602260045260246000fd5b600060028204905060018216806200045d57607f821691505b60208210810362000473576200047262000415565b5b50919050565b610fb080620004896000396000f3fe608060405234801561001057600080fd5b50600436106100935760003560e01c80636ebcf607116100665780636ebcf6071461013457806395d89b4114610164578063d28d885214610182578063dd62ed3e146101a0578063e1f21c67146101d057610093565b806323b872dd14610098578063313ce567146100c85780633940e9ee146100e657806369ca02dd14610104575b600080fd5b6100b260048036038101906100ad91906109b9565b6101ec565b6040516100bf9190610a27565b60405180910390f35b6100d0610279565b6040516100dd9190610a51565b60405180910390f35b6100ee61027f565b6040516100fb9190610a51565b60405180910390f35b61011e60048036038101906101199190610a6c565b610285565b60405161012b9190610a27565b60405180910390f35b61014e60048036038101906101499190610aac565b61029c565b60405161015b9190610a51565b60405180910390f35b61016c6102b4565b6040516101799190610b72565b60405180910390f35b61018a610342565b6040516101979190610b72565b60405180910390f35b6101ba60048036038101906101b59190610b94565b6103d0565b6040516101c79190610a51565b60405180910390f35b6101ea60048036038101906101e591906109b9565b6103f5565b005b6000803390506101fd8582856105be565b6102088585856106bd565b8373ffffffffffffffffffffffffffffffffffffffff168573ffffffffffffffffffffffffffffffffffffffff167fbeabacc8ffedac16e9a60acdb2ca743d80c2ebb44977a93fa8e483c74d2b35a8856040516102659190610a51565b60405180910390a360019150509392505050565b60025481565b60035481565b60006102923384846106bd565b6001905092915050565b60046020528060005260406000206000915090505481565b600180546102c190610c03565b80601f01602080910402602001604051908101604052809291908181526020018280546102ed90610c03565b801561033a5780601f1061030f5761010080835404028352916020019161033a565b820191906000526020600020905b81548152906001019060200180831161031d57829003601f168201915b505050505081565b6000805461034f90610c03565b80601f016020809104026020016040519081016040528092919081815260200182805461037b90610c03565b80156103c85780601f1061039d576101008083540402835291602001916103c8565b820191906000526020600020905b8154815290600101906020018083116103ab57829003601f168201915b505050505081565b6005602052816000526040600020602052806000526040600020600091509150505481565b600073ffffffffffffffffffffffffffffffffffffffff168373ffffffffffffffffffffffffffffffffffffffff1603610464576040517f08c379a000000000000000000000000000000000000000000000000000000000815260040161045b90610ca6565b60405180910390fd5b600073ffffffffffffffffffffffffffffffffffffffff168273ffffffffffffffffffffffffffffffffffffffff16036104d3576040517f08c379a00000000000000000000000000000000000000000000000000000000081526004016104ca90610d38565b60405180910390fd5b80600560008573ffffffffffffffffffffffffffffffffffffffff1673ffffffffffffffffffffffffffffffffffffffff16815260200190815260200160002060008473ffffffffffffffffffffffffffffffffffffffff1673ffffffffffffffffffffffffffffffffffffffff168152602001908152602001600020819055508173ffffffffffffffffffffffffffffffffffffffff168373ffffffffffffffffffffffffffffffffffffffff167f8c5be1e5ebec7d5bd14f71427d1e84f3dd0314c0f7b2291e5b200ac8c7c3b925836040516105b19190610a51565b60405180910390a3505050565b6000600560008573ffffffffffffffffffffffffffffffffffffffff1673ffffffffffffffffffffffffffffffffffffffff16815260200190815260200160002060008473ffffffffffffffffffffffffffffffffffffffff1673ffffffffffffffffffffffffffffffffffffffff1681526020019081526020016000205490507fffffffffffffffffffffffffffffffffffffffffffffffffffffffffffffffff81146106b757818110156106a9576040517f08c379a00000000000000000000000000000000000000000000000000000000081526004016106a090610da4565b60405180910390fd5b6106b684848484036103f5565b5b50505050565b600073ffffffffffffffffffffffffffffffffffffffff168373ffffffffffffffffffffffffffffffffffffffff160361072c576040517f08c379a000000000000000000000000000000000000000000000000000000000815260040161072390610e36565b60405180910390fd5b600073ffffffffffffffffffffffffffffffffffffffff168273ffffffffffffffffffffffffffffffffffffffff160361079b576040517f08c379a000000000000000000000000000000000000000000000000000000000815260040161079290610ec8565b60405180910390fd5b6000600460008573ffffffffffffffffffffffffffffffffffffffff1673ffffffffffffffffffffffffffffffffffffffff16815260200190815260200160002054905081811015610822576040517f08c379a000000000000000000000000000000000000000000000000000000000815260040161081990610f5a565b60405180910390fd5b818103600460008673ffffffffffffffffffffffffffffffffffffffff1673ffffffffffffffffffffffffffffffffffffffff1681526020019081526020016000208190555081600460008573ffffffffffffffffffffffffffffffffffffffff1673ffffffffffffffffffffffffffffffffffffffff168152602001908152602001600020600082825401925050819055508273ffffffffffffffffffffffffffffffffffffffff168473ffffffffffffffffffffffffffffffffffffffff167fbeabacc8ffedac16e9a60acdb2ca743d80c2ebb44977a93fa8e483c74d2b35a8846040516109129190610a51565b60405180910390a350505050565b600080fd5b600073ffffffffffffffffffffffffffffffffffffffff82169050919050565b600061095082610925565b9050919050565b61096081610945565b811461096b57600080fd5b50565b60008135905061097d81610957565b92915050565b6000819050919050565b61099681610983565b81146109a157600080fd5b50565b6000813590506109b38161098d565b92915050565b6000806000606084860312156109d2576109d1610920565b5b60006109e08682870161096e565b93505060206109f18682870161096e565b9250506040610a02868287016109a4565b9150509250925092565b60008115159050919050565b610a2181610a0c565b82525050565b6000602082019050610a3c6000830184610a18565b92915050565b610a4b81610983565b82525050565b6000602082019050610a666000830184610a42565b92915050565b60008060408385031215610a8357610a82610920565b5b6000610a918582860161096e565b9250506020610aa2858286016109a4565b9150509250929050565b600060208284031215610ac257610ac1610920565b5b6000610ad08482850161096e565b91505092915050565b600081519050919050565b600082825260208201905092915050565b60005b83811015610b13578082015181840152602081019050610af8565b83811115610b22576000848401525b50505050565b6000601f19601f8301169050919050565b6000610b4482610ad9565b610b4e8185610ae4565b9350610b5e818560208601610af5565b610b6781610b28565b840191505092915050565b60006020820190508181036000830152610b8c8184610b39565b905092915050565b60008060408385031215610bab57610baa610920565b5b6000610bb98582860161096e565b9250506020610bca8582860161096e565b9150509250929050565b7f4e487b7100000000000000000000000000000000000000000000000000000000600052602260045260246000fd5b60006002820490506001821680610c1b57607f821691505b602082108103610c2e57610c2d610bd4565b5b50919050565b7f45524332303a20617070726f76652066726f6d20746865207a65726f2061646460008201527f7265737300000000000000000000000000000000000000000000000000000000602082015250565b6000610c90602483610ae4565b9150610c9b82610c34565b604082019050919050565b60006020820190508181036000830152610cbf81610c83565b9050919050565b7f45524332303a20617070726f766520746f20746865207a65726f20616464726560008201527f7373000000000000000000000000000000000000000000000000000000000000602082015250565b6000610d22602283610ae4565b9150610d2d82610cc6565b604082019050919050565b60006020820190508181036000830152610d5181610d15565b9050919050565b7f45524332303a20696e73756666696369656e7420616c6c6f77616e6365000000600082015250565b6000610d8e601d83610ae4565b9150610d9982610d58565b602082019050919050565b60006020820190508181036000830152610dbd81610d81565b9050919050565b7f45524332303a207472616e736665722066726f6d20746865207a65726f20616460008201527f6472657373000000000000000000000000000000000000000000000000000000602082015250565b6000610e20602583610ae4565b9150610e2b82610dc4565b604082019050919050565b60006020820190508181036000830152610e4f81610e13565b9050919050565b7f45524332303a207472616e7366657220746f20746865207a65726f206164647260008201527f6573730000000000000000000000000000000000000000000000000000000000602082015250565b6000610eb2602383610ae4565b9150610ebd82610e56565b604082019050919050565b60006020820190508181036000830152610ee181610ea5565b9050919050565b7f45524332303a207472616e7366657220616d6f756e742065786365656473206260008201527f616c616e63650000000000000000000000000000000000000000000000000000602082015250565b6000610f44602683610ae4565b9150610f4f82610ee8565b604082019050919050565b60006020820190508181036000830152610f7381610f37565b905091905056fea26469706673582212201d6bceaf6aba6a34a887bf0d053e47e89d312d92fdb0ab120bef866ca3e4ed9f64736f6c634300080d0033",
  "immutableReferences": {},
  "source": "// SPDX-License-Identifier: MIT\npragma solidity ^0.8.0;\n\n\ncontract Token\n{\n    //variables\n    string public _name = \"Abdel Token\";\n    string public symbol = \"HAI\";\n    uint256 public decimals = 18;\n    uint256 public total_supply;\n    mapping(address => uint256) public _balances;\n    mapping(address => mapping(address => uint256)) public allowance;\n\n    //event\n    event transfer(address indexed from, address indexed to, uint256 amount);\n    event Approval(address indexed owner, address indexed spender, uint256 value);\n\n    constructor() \n    {\n        // and we should multiplie by decimals to use fractional part\n        total_supply = 1000000 * (10 ** decimals);\n        _balances[msg.sender] = total_supply;\n\n    }\n    //better to use safe math and reantrancy guard compiler sol include safemath 0.8.0\n    function Transfer(address to,uint256 amount) public returns (bool success)\n    {\n        _Transfer(msg.sender,to, amount);\n        return true;\n    }\n    function _spendAllowance(address owner, address spender, uint256 amount) internal virtual {\n        uint256 currentAllowance = allowance[owner][spender];\n        if (currentAllowance != type(uint256).max) {\n            require(currentAllowance >= amount, \"ERC20: insufficient allowance\");\n            unchecked {\n                approve(owner, spender, currentAllowance - amount);\n            }\n        }\n    }\n\n    function approve(address owner, address spender, uint256 amount) public {\n        require(owner != address(0), \"ERC20: approve from the zero address\");\n        require(spender != address(0), \"ERC20: approve to the zero address\");\n\n        allowance[owner][spender] = amount;\n        emit Approval(owner, spender, amount);\n    }\n\n    function _Transfer(address from, address to,uint256 amount) internal virtual{\n        require(from != address(0), \"ERC20: transfer from the zero address\");\n        require(to != address(0), \"ERC20: transfer to the zero address\");\n        uint256 fromBalance = _balances[from];\n        require(fromBalance >= amount, \"ERC20: transfer amount exceeds balance\");\n        \n        unchecked {\n            _balances[from] = fromBalance - amount;\n            // Overflow not possible: the sum of all balances is capped by totalSupply, and the sum is preserved by\n            // decrementing then incrementing.\n            _balances[to] += amount;\n        }\n        emit transfer(from, to, amount);\n\n    }\n\n    function transferFrom(address from, address to, uint256 amount) public  returns (bool) {\n        address spender = msg.sender;\n        _spendAllowance(from, spender, amount);\n        _Transfer(from, to, amount);\n        emit transfer(from, to, amount);\n        return true;\n    }\n\n    // function balanceOf(address account) public view returns(uint256)\n    // {\n    //     return _balances[account];\n    // }\n\n}\n",
  "sourcePath": "/home/abdel/Documents/exch/src/contracts/Token.sol",
  "compiler": {
    "name": "solc",
    "version": "0.8.13+commit.abaa5c0e.Emscripten.clang"
  },
  "schemaVersion": "3.4.7",
  "updatedAt": "2022-08-13T19:08:18.754Z",
  "networkType": "ethereum",
  "devdoc": {
    "kind": "dev",
    "methods": {},
    "version": 1
  },
  "userdoc": {
    "kind": "user",
    "methods": {},
    "version": 1
  }
}